{
  "contractName": "Adoption",
  "abi": [
    {
      "constant": false,
      "inputs": [
        {
          "name": "petId",
          "type": "uint256"
        }
      ],
      "name": "adopt",
      "outputs": [
        {
          "name": "",
          "type": "uint256"
        }
      ],
      "payable": false,
      "stateMutability": "nonpayable",
      "type": "function"
    },
    {
      "constant": true,
      "inputs": [],
      "name": "getAdopters",
      "outputs": [
        {
          "name": "",
          "type": "address[16]"
        }
      ],
      "payable": false,
      "stateMutability": "view",
      "type": "function"
    }
  ],
  "bytecode": "0x608060405234801561001057600080fd5b5061022b806100206000396000f30060806040526004361061004c576000357c0100000000000000000000000000000000000000000000000000000000900463ffffffff1680633de4eb17146100515780638588b2c5146100a4575b600080fd5b34801561005d57600080fd5b506100666100e5565b6040518082601060200280838360005b83811015610091578082015181840152602081019050610076565b5050505090500191505060405180910390f35b3480156100b057600080fd5b506100cf60048036038101908080359060200190929190505050610166565b6040518082815260200191505060405180910390f35b6100ed6101db565b600060108060200260405190810160405280929190826010801561015c576020028201915b8160009054906101000a900473ffffffffffffffffffffffffffffffffffffffff1673ffffffffffffffffffffffffffffffffffffffff1681526020019060010190808311610112575b5050505050905090565b60008082101580156101795750600f8211155b151561018457600080fd5b3360008360108110151561019457fe5b0160006101000a81548173ffffffffffffffffffffffffffffffffffffffff021916908373ffffffffffffffffffffffffffffffffffffffff160217905550819050919050565b610200604051908101604052806010906020820280388339808201915050905050905600a165627a7a72305820c162b7eae3123bcc87068ab597180758181a8032d85d25f5ed1a481ed09b75c70029",
  "source": "pragma solidity ^0.4.24;\n\ncontract Adoption {\n    address[16] private adopters;\n\n    function adopt(uint256 petId) external returns(uint256) {\n        require(petId >= 0 && petId <= 15);\n        \n        adopters[petId] = msg.sender;\n        \n        return petId;\n    }\n    \n    function getAdopters() public view returns(address[16]) {\n        return adopters;\n    }\n    \n}",
  "sourcePath": "/home/ec2-user/truffle-tutorial/contracts/Adoption.sol",
  "compiler": {
    "name": "solc",
    "version": "0.4.24+commit.e67f0147.Emscripten.clang"
  },
  "schemaVersion": "2.0.1",
  "updatedAt": "2018-06-28T13:11:37.174Z"
}